:1000000014C1000042C1000040C100003EC1000018
:100010003CC100003AC1000038C1000036C10000F8
:1000200034C1000032C1000030C100002EC1000008
:100030002CC100001DC4000028C1000026C1000022
:1000400024C1000022C1000020C100001EC1000028
:100050001CC100001AC1000018C10000E6C2000067
:1000600014C1000055C300002AC300000EC10000E7
:100070000CC100000AC1000008C1000006C1000058
:1000800004C1000002C1000000C10000FEC0000069
:10009000FCC00000FAC00000F8C00000F6C000007C
:1000A000F4C00000F2C00000F0C00000EEC000008C
:1000B000ECC00000EAC00000E8C00000E6C000009C
:1000C000E4C00000E2C00000E0C00000DEC00000AC
:1000D000DCC00000DAC00000D8C00000D6C00000BC
:1000E000D4C000005F066206510655065B069906FD
:1000F00066066A067006740678067E06820686061E
:1001000099068C0690069406000020002300260025
:1001100029002C002F00320000010000030106011D
:10012000090100002100240027002A002D003000D2
:10013000330001010000040107010A010000220050
:10014000250028002B002E003100340002010000A1
:10015000050108010B010505050507050808080844
:10016000020202020A0A080804040404010101014F
:10017000010101010303030303030303040707074A
:100180000C0C0C0C0C0C0C0C0202020206060606EF
:10019000060606060B0B0B0B0B0B0B0B01021020BC
:1001A00020080810204010204080020102010804AD
:1001B0000201010204081020408080402010080441
:1001C000020180040201804020100804020108049A
:1001D00002010102040810204080010204081020DE
:1001E000408000000A0B02090C0D0E0807030401F1
:1001F00000000000000000000000000000000000FF
:1002000000000000000000000000000000001211CB
:1002100010000000000000000000000000000000CE
:1002200000000000000000002B0B11241FBECFEFC8
:10023000D1E2DEBFCDBF00E00CBF12E0A0E0B2E033
:10024000E4EAF8E100E00BBF02C007900D92A2368D
:10025000B107D9F724E0A2E6B2E001C01D92A834AC
:10026000B207E1F711E0C5E1D1E000E006C0219757
:100270000109802FFE010E94440CC431D10780E0A7
:100280000807A9F709D70C94500CBACECF92DF9289
:10029000EF92FF920F931F93CF93DF936C017A013C
:1002A0008B01C0E0D0E0CE15DF0589F0D8016D915B
:1002B0008D01D601ED91FC910190F081E02DC601F8
:1002C0001995892B11F47E0102C02196ECCFC7014C
:1002D000DF91CF911F910F91FF90EF90DF90CF9022
:1002E0000895FC01538D448D252F30E0842F90E03C
:1002F000821B930B541710F0CF9608950197089521
:10030000FC01918D828D981761F0828DDF01A80F1D
:10031000B11D5D968C91928D9F5F9F73928F90E03F
:1003200008958FEF9FEF0895FC01918D828D9817AE
:1003300031F0828DE80FF11D858D90E008958FEFEB
:100340009FEF0895FC01918D228D892F90E0805CB4
:100350009F4F821B91098F739927089589E493E039
:10036000F1DF21E0892B09F420E0822F0895FC01C0
:10037000848DDF01A80FB11DA35ABF4F2C91848D2E
:1003800090E001968F739927848FA689B7892C9363
:10039000A089B1898C9180648C93938D848D9813FE
:1003A00006C00288F389E02D80818F7D80830895C7
:1003B000EF92FF920F931F93CF93DF93EC0181E0B5
:1003C000888F9B8D8C8D981305C0E889F989808171
:1003D00085FD23C0F62E0B8D10E00F5F1F4F0F73AE
:1003E0001127E02E8C8DE8120BC00FB607FCFACF58
:1003F000E889F989808185FFF5CFCE01B8DFF2CF9A
:100400008B8DFE01E80FF11DE35AFF4FF0820B8F39
:10041000EA89FB898081806207C0EE89FF89608359
:10042000E889F98980818064808381E090E0DF91B0
:10043000CF911F910F91FF90EF900895CF93DF938D
:10044000EC01888D8823C1F0EA89FB89808185FDD4
:1004500005C0A889B9898C9186FD0EC00FB607FC2E
:10046000F5CF808185FFF2CFA889B9898C9185FF6E
:10047000EDCFCE017CDFE8CFDF91CF91089580E012
:1004800090E0892B19F06ADF811125C080E090E0AF
:10049000892B41F080E090E0892B21F00E94000040
:1004A00081111CC080E090E0892B41F080E090E059
:1004B000892B21F00E940000811113C080E090E0A0
:1004C000892BA1F080E090E0892B81F00E94000050
:1004D00081110AC008950E940000D8CF0E94000038
:1004E000E1CF0E940000EACF0C9400000895089527
:1004F00080E090E00895CF93DF93EC0160E08E817F
:1005000019D461E08E8116D460E08E8113D48BE81B
:1005100091E00197F1F7DF91CF91089562E370E0E8
:1005200080E090E03CD58091340390913503A09118
:100530003603B09137030A97A105B10534F00DD306
:1005400062E370E080E090E02AC508950E944C0CC0
:100550000F931F93CF93DF93EC0160E08881EAD380
:1005600083E090E00197F1F761E08881E3D383E2D3
:1005700090E00197F1F760E08881DCD32A813B812C
:100580003327F901E456FE4F6491F901EA5AFE4F10
:10059000E491F0E0EE0FFF1FE85FFE4F859194912C
:1005A00000E412E42FE030E0462F31D561157105EB
:1005B0008105910549F0DC01CB010196A11DB11D1A
:1005C000BC01CD019F7003C060E070E0CB016C8383
:1005D0007D838E839F83DF91CF911F910F9108952B
:1005E0003FB7F8948091450390914603A09147034B
:1005F000B091480326B5A89B05C02F3F19F001967E
:10060000A11DB11D3FBFBA2FA92F982F8827820F98
:10061000911DA11DB11DBC01CD0142E0660F771FE8
:10062000881F991F4A95D1F708951F920F920FB610
:100630000F9211242F933F938F939F93AF93BF9368
:100640008091410390914203A0914303B0914403F0
:100650003091400323E0230F2D3720F40196A11D94
:10066000B11D05C026E8230F0296A11DB11D2093E0
:1006700040038093410390934203A0934303B093BC
:1006800044038091450390914603A0914703B091A4
:1006900048030196A11DB11D809345039093460325
:1006A000A0934703B0934803BF91AF919F918F915F
:1006B0003F912F910F900FBE0F901F9018951F9292
:1006C0000F920FB60F9211240BB60F922F933F93F8
:1006D0004F935F936F937F938F939F93AF93BF934A
:1006E000EF93FF9389E493E042DEFF91EF91BF9196
:1006F000AF919F918F917F916F915F914F913F91BA
:100700002F910F900BBE0F900FBE0F901F9018955A
:100710001F920F920FB60F9211240BB60F922F93C8
:100720008F939F93EF93FF93E0915903F0915A03B6
:100730008081E0915F03F091600382FD12C090819F
:10074000809162038F5F8F7320916303821751F052
:10075000E0916203F0E0E75BFC4F958F80936203CA
:1007600001C08081FF91EF919F918F912F910F9008
:100770000BBE0F900FBE0F901F901895FC0180814B
:10078000823079F018F4813031F00895833079F0B7
:10079000843099F0089570E0709389006093880028
:1007A000089570E070939D0060939C00089570E040
:1007B0007093A9006093A800089570E07093990069
:1007C000609398000895FC018081823049F018F40C
:1007D000813079F00895833031F0843039F0089514
:1007E00024E031E008C027E035E005C026E030E035
:1007F00002C023E032E06230A9F0643029F16130B8
:10080000B1F581E090E0AC0101C0440F2A95EAF710
:10081000409501C0880F3A95EAF79091E603892B3D
:10082000842322C081E090E0AC0101C0440F3A95DE
:10083000EAF7342F30954091E603342301C0880F46
:100840002A95EAF7832B10C041E050E0CA0101C0AD
:10085000880F3A95EAF701C0440F2A95EAF7842BEE
:1008600080959091E60389238093E60392C20895D0
:100870001F920F920FB60F9211240BB60F922F9367
:100880003F934F935F936F937F938F939F93AF9318
:10089000BF93CF93DF93EF93FF932091630230E0F8
:1008A000F901EE51FE4F8491F901E456FE4FD491C7
:1008B000F901EA5AFE4FC491CC2399F08111E5D198
:1008C000EC2FF0E0EE0FFF1FE85FFE4FA591B49113
:1008D000EC91ED2331E020E009F430E0832F922FFA
:1008E00002C080E090E020916702309168022F5FA3
:1008F0003F4F3093680220936702209166022536AD
:1009000018F026E020936202209162022430D9F18F
:1009100028F4223069F02330D9F060C0253009F482
:1009200053C0263009F05AC021E02093330353C04E
:10093000009709F053C02091670230916802243675
:10094000310508F443C010923303109266021DC0B3
:100950008130910509F042C0E091660221E02E0F3E
:1009600020936602F0E02091670230916802EE0F5A
:10097000FF1FEE59FD4F30872783109268021092B7
:10098000670224E029C00097B9F4E091660221E0F3
:100990002E0F20936602F0E02091670230916802EA
:1009A000EE0FFF1FEE59FD4F30872783109268022C
:1009B0001092670223E010C0209167023091680214
:1009C0002536310558F007C0009741F410926802AF
:1009D0001092670203C025E0209362022091650215
:1009E0002223B1F0892B51F480916402882321F0F5
:1009F0008091640261E009C02F9A0AC0809164026C
:100A0000882329F08091640260E094D101C02F987E
:100A1000FF91EF91DF91CF91BF91AF919F918F9116
:100A20007F916F915F914F913F912F910F900BBEEE
:100A30000F900FBE0F901F901895CF92DF92EF92FC
:100A4000FF920F931F93CF93DF937C016C0187E09C
:100A5000C80ED11CC0E0D0E0062F10E0B8010C2E6B
:100A600002C0759567950A94E2F76170F60181916D
:100A70006F0160D12196C430D10581F7C701DF91A4
:100A8000CF911F910F91FF90EF90DF90CF9033CDDA
:100A9000CF92DF92EF92FF920F931F93CF93DF934A
:100AA000EC01F62E642F8C8145D18D818F3F11F0A2
:100AB00060E040D18F850F2D10E084FF23C06E01D0
:100AC00087E0C80ED11CE12CF12CB8010E2C02C01D
:100AD000759567950A94E2F76170F60181916F014F
:100AE00029D1FFEFEF1AFF0A88E0E816F10469F751
:100AF000CE01DF91CF911F910F91FF90EF90DF908A
:100B0000CF90F9CCB80184E0759567958A95E1F7A7
:100B1000CE0193DF6F2DCE01DF91CF911F910F9109
:100B2000FF90EF90DF90CF9088CF41E0B1DF81E080
:100B300090E0089540E0ACCF009761F0FC01019097
:100B40000020E9F73197AF01481B590BBC0188EE33
:100B500093E09CCB80E090E0089561E084E094E035
:100B600032DE62E086E094E02ECE8F929F92AF92CA
:100B7000BF92CF92DF92EF92FF920F931F93CF938A
:100B8000DF93CDB7DEB7A1970FB6F894DEBF0FBEE7
:100B9000CDBF6B017C0197FF2FC0E091E803F0917E
:100BA000E9030190F081E02D6DE288EE93E0199564
:100BB0008C0122273327A9012C193D094E095F0911
:100BC00019A2CE0181967C019AE0892E912CA12C4C
:100BD000B12CCA01B901A501940118D6605DF701D5
:100BE00062937F01211531054105510591F7CF0130
:100BF000A3DF800F911F1BC09B01AC0119A28E01C6
:100C00000F5D1F4F8AE0C82ED12CE12CF12CCA01B8
:100C1000B901A7019601FAD5605DF80162938F01D1
:100C2000211531054105510591F7CF0185DFA196C9
:100C30000FB6F894DEBF0FBECDBFDF91CF911F91ED
:100C40000F91FF90EF90DF90CF90BF90AF909F906B
:100C50008F90089571CF843008F083E09091FB036A
:100C6000891710F08FEF890FE82FF0E0E851FC4F63
:100C70006489606888EE93E05DCF62E084E094E090
:100C8000A2DD62E086E094E09ECD90E0FC01319729
:100C9000E231F10508F04DC08827EE58FF4F8F4F25
:100CA000F3C5809180008F7703C0809180008F7D95
:100CB00080938000089580918000877FF9CF84B56C
:100CC0008F7702C084B58F7D84BD08958091B00078
:100CD0008F7703C08091B0008F7D8093B00008951E
:100CE000809190008F7707C0809190008F7D03C026
:100CF00080919000877F8093900008958091A0005C
:100D00008F7707C08091A0008F7D03C08091A000E5
:100D1000877F8093A0000895809120018F7707C07E
:100D2000809120018F7D03C080912001877F809377
:100D3000200108951F93CF93DF93282F30E0F9010E
:100D4000EE51FE4F8491F901E456FE4FD491F90122
:100D5000EA5AFE4FC491CC23C1F0162F811195DFC2
:100D6000EC2FF0E0EE0FFF1FE45CFE4FA591B49175
:100D70008FB7F894111105C09C91ED2FE095E923F0
:100D800002C0EC91ED2BEC938FBFDF91CF911F91BF
:100D90000895CF93DF9360E08CE0CCDF60E088E0E3
:100DA000C9DFC7E0D0E060E084E0C4DF8091E60303
:100DB00090E00C2E02C0959587950A94E2F780FF8B
:100DC00002C061E001C060E088E0B4DF61E084E07F
:100DD000B1DF219740F761E08CE0DF91CF91AACF9E
:100DE000CF93DF9390E0FC01E456FE4F2491FC0189
:100DF000EA5AFE4F8491882361F190E0880F991F91
:100E0000FC01EE5DFE4FC591D491FC01E45CFE4F08
:100E1000A591B491611109C09FB7F894888120957C
:100E200082238883EC912E230BC0623061F49FB73C
:100E3000F8943881822F809583238883EC912E2B20
:100E40002C939FBF06C08FB7F894E8812E2B288380
:100E50008FBFDF91CF910895EF92FF920F931F9371
:100E6000CF93DF93EC01623018F08F8588608F8715
:100E70006B8B1C8A80E48D8B80E18E8B80E58F8B61
:100E800061E08C81ADDF8D818F3F11F061E0A8DFE3
:100E900061E08E81A5DF7E0187E0E80EF11C00E0B5
:100EA00010E08F8584FD03C084E090E002C088E0FC
:100EB00090E00817190744F461E0F70181917F0180
:100EC0008FDF0F5F1F4FEDCF8BE39DE00197F1F7B1
:100ED00060E08C812FDF60E08E812CDF8D818F3F81
:100EE00011F060E027DF6F8564FD19C063E0CE017B
:100EF000A4DD0BE416E4C8010197F1F763E0CE012D
:100F00009CDDC8010197F1F763E0CE0196DD83E532
:100F100092E00197F1F762E0CE018FDD13C06062CD
:100F2000CE0108DE8BE496E40197F1F76F856062ED
:100F3000CE0100DE83E592E00197F1F76F856062F4
:100F4000CE01F8DD6F856062CE01F4DD84E0888B30
:100F50006CE0CE01EFDD61E0CE01ECDD8BE39FE1E3
:100F60000197F1F782E0898B66E0CE01DF91CF91A6
:100F70001F910F91FF90EF90DDCD61E08CE030DFAD
:100F800061E087E02DDF61E088E02ADF61E084E056
:100F900027DF1092E603FDDE60E087E0CBCE8F9284
:100FA0009F92AF92BF92CF92DF92EF92FF926B012E
:100FB0007C0116DB4B015C01C114D104E104F10496
:100FC000E9F00EDBDC01CB0188199909AA09BB09FC
:100FD000883E9340A105B10578F321E0C21AD108FB
:100FE000E108F10888EE880E83E0981EA11CB11C70
:100FF000C114D104E104F10421F7DECFFF90EF909A
:10100000DF90CF90BF90AF909F908F900895CF9238
:10101000DF92EF92FF920F931F93E82FF92F05C0F5
:10102000015011092109310961F19081962394172A
:10103000B9F305C0015011092109310911F190815D
:1010400096239413F7CFC12CD12CE12CF12C0AC09C
:101050008FEFC81AD80AE80AF80A0C151D052E05E4
:101060003F0579F080818623841791F36C2D7D2DC7
:101070008E2D9F2D1F910F91FF90EF90DF90CF90BD
:10108000089560E070E080E090E01F910F91FF9084
:10109000EF90DF90CF900895CF93DF9300D01F9211
:1010A000CDB7DEB7789484B5826084BD84B58160A5
:1010B00084BD85B5826085BD85B5816085BD809123
:1010C0006E00816080936E0010928100809181009B
:1010D0008260809381008091810081608093810093
:1010E000809180008160809380008091B100846055
:1010F0008093B1008091B00081608093B0008091B6
:101100009100826080939100809191008160809332
:101110009100809190008160809390008091A10067
:1011200082608093A1008091A10081608093A100E2
:101130008091A00081608093A00080912101826055
:101140008093210180912101816080932101809110
:10115000200181608093200180917A0084608093D7
:101160007A0080917A00826080937A0080917A0080
:10117000816080937A0080917A00806880937A0001
:101180001092C100E0915903F0915A0382E08083EC
:10119000E0915503F09156031082E0915703F091CE
:1011A00058038FEC808310926103E0915D03F0910E
:1011B0005E0386E08083E0915B03F0915C038081B5
:1011C00080618083E0915B03F0915C0380818860A3
:1011D0008083E0915B03F0915C0380818068808371
:1011E000E0915B03F0915C0380818F7D808361E0FF
:1011F00080910004F5DD62E088EE93E02DDE8AE365
:10120000882E912CA12CB12C94E9492E512C612CC3
:10121000712C22242394312C64E084E094E0D3DA0E
:1012200064E086E094E0CFDA68EC70E080E090E083
:10123000B6DE6FE784E094E0A1DA6FE786E094E041
:101240009DDA00910A0410910B0488E194E080D9A2
:1012500080911C0490911D04A0911E04B0911F0464
:1012600089839A83AB83BC83BC01CD01A501940122
:10127000EFD269017A012093200430932104409336
:1012800022045093230469817A818B819C81A3017C
:101290009201DED220932404309325044093260447
:1012A00050932704012B11F469017A0195EFC916B7
:1012B00091E0D906E104F1044CF0C0900C04D09008
:1012C0000D04E0900E04F0900F0408C0C0920C04CE
:1012D000D0920D04E0920E04F0920F04C0923403F9
:1012E000D0923503E0923603F092370300910A045E
:1012F00010910B0488E294E02BD980912C049091FA
:101300002D04A0912E04B0912F0489839A83AB837E
:10131000BC83BC01CD01A50194019AD269017A0177
:1013200020933004309331044093320450933304BB
:1013300069817A818B819C81A301920189D220935A
:101340003404309335044093360450933704012B12
:1013500011F469017A0195EFC91691E0D906E1040B
:10136000F1044CF0C0901004D0901104E0901204ED
:10137000F090130408C0C0921004D0921104E092BF
:101380001204F0921304C0923803D0923903E09211
:101390003A03F0923B0300910A0410910B0488E396
:1013A00094E0D6D880913C0490913D04A0913E04F5
:1013B000B0913F0489839A83AB83BC83BC01CD0188
:1013C000A501940145D269017A012093400430932C
:1013D0004104409342045093430469817A818B8194
:1013E0009C81A301920134D220934404309345049C
:1013F0004093460450934704012B11F469017A018C
:1014000095EFC91691E0D906E104F1044CF0C090C3
:101410001404D0901504E0901604F090170408C04E
:10142000C0921404D0921504E0921604F0921704AE
:10143000C0923C03D0923D03E0923E03F0923F0302
:1014400081E009DC8EE192E005DC81E004DC8FE2E2
:1014500092E000DC60913403709135038091360393
:101460009091370382DB82E392E0F4DB60913803F2
:101470007091390380913A0390913B0376DB86E3C8
:1014800092E0E8DB60913C0370913D0380913E0364
:1014900090913F036ADB80E0DEDB8EE192E0DADBF5
:1014A00080E0D9DB60E08091000444DC109203040A
:1014B00010920204C0903403D0903503E0903603BC
:1014C000F0903703A6E0CA16D104E104F10484F4D5
:1014D0008AE392E0BFDB62E084E094E074D961E0EB
:1014E00086E094E070D962E370E080E090E057C05D
:1014F000409138035091390360913A0370913B0356
:1015000080913C0390913D03A0913E03B0913F0335
:1015100048325105610571050CF445C0E8E2CE166C
:10152000D104E104F1040CF43EC089309105A10519
:10153000B105ACF449305105610571050CF43AC0B0
:1015400089309105A105B1050CF434C089E492E01D
:1015500081DB03DB64E670E080E090E020C08FE395
:1015600092E078DBFADA68EC70E080E090E017DD7A
:1015700084DB68EC70E080E090E011DDEEDA68EC8E
:1015800070E080E090E00BDD78DB62E370E080E00B
:1015900090E005DDE2DA6CE271E080E090E0FFDCF3
:1015A0000E943F0239CEEFE0CE16D104E104F104EF
:1015B0000CF0C0CF8A019B010E5F1F4F2F4F3F4F92
:1015C0008A309105A105B10564F0081719072A07AB
:1015D0003B078CF0FFE0CF16D104E104F1045CF48A
:1015E00005C0081719072A073B072CF081E492E091
:1015F00031DB43DB2DC04A3051056105710564F0D4
:10160000481759076A077B0764F42FE0C216D10414
:10161000E104F10434F411C0481759076A077B0745
:1016200064F061E08091000485DB30920304209235
:10163000020480E592E00EDBB3CF89E592E00ADB9D
:1016400061E084E094E0BFD861E086E094E0BBD83C
:101650000E948E02A5CF0F931F93CF93DF93E9E4EF
:10166000F3E01382128288EE93E0A0E0B0E084837E
:101670009583A683B78384E092E09183808385EC91
:1016800090E09587848784EC90E09787868780EC4C
:1016900090E0918B808B81EC90E0938B828B82EC3D
:1016A00090E0958B848B86EC90E0978B868B118EE7
:1016B000128E138E148E1092E703CAE0D4E001E07C
:1016C00010E0198308831A821B821C821D821E82ED
:1016D0001F82188619861A861B861C861D8661E065
:1016E00082E47EDB60E083E47BDB82E490E09F8742
:1016F0008E8783E490E0998B888B61E084E470DBD3
:1017000060E085E46DDB84E490E09F8F8E8F85E45C
:1017100090E099A388A361E080E462DB60E081E46B
:101720005FDB80E490E09FA78EA781E490E099AB17
:1017300088AB19830883C4E0D4E084E0888302E0A6
:1017400009831BDC8091E6038E7B8093E60321DB1B
:10175000E0E9F0E08081816880831AE010939100D5
:10176000109299001092980061E085E039DB83E0E7
:101770008A830B8302DC8091E6038F758093E603F6
:1017800008DBE0EAF0E08081816880831093A100AB
:101790001092A9001092A80061E086E021DB8FEF93
:1017A00090E09D838C836FEFCE010E94BE036FEFAC
:1017B00086E094E00E94BE03E0E0F4E08CE290E07A
:1017C0009183808313821282E8EEF3E01382128207
:1017D00086E192E09183808386E184838FEF858325
:1017E00087E1868388E1878389E180878AE1818731
:1017F0008BE182871386148615861686178661E02C
:10180000CF01DF91CF911F910F9126CBA1E21A2E2C
:10181000AA1BBB1BFD010DC0AA1FBB1FEE1FFF1F94
:10182000A217B307E407F50720F0A21BB30BE40BE4
:10183000F50B661F771F881F991F1A9469F760952B
:101840007095809590959B01AC01BD01CF010895E5
:10185000052E97FB16F400940FD057FD05D0D6DF68
:1018600007FC02D046F408C050954095309521956C
:101870003F4F4F4F5F4F08959095809570956195BC
:101880007F4F8F4F9F4F0895EE0FFF1F881F8BBF15
:101890000790F691E02D199481E090E0F89400C053
:0418A000F894FFCFEA
:1018A40000000000D801460171011E02A20180015E
:1018B400940100000000950546017802770220207B
:1018C400202020202020202020202020202000460E
:1018D40020002044200020452000547261730043FE
:1018E4002044697265697461004672656E746500AE
:1018F40053656D206163616F004573717565726432
:02190400610080
:00000001FF
